{
  "contractName": "MyToken",
  "abi": [
    {
      "inputs": [],
      "stateMutability": "nonpayable",
      "type": "constructor"
    },
    {
      "anonymous": false,
      "inputs": [
        {
          "indexed": true,
          "internalType": "address",
          "name": "owner",
          "type": "address"
        },
        {
          "indexed": true,
          "internalType": "address",
          "name": "spender",
          "type": "address"
        },
        {
          "indexed": false,
          "internalType": "uint256",
          "name": "value",
          "type": "uint256"
        }
      ],
      "name": "Approval",
      "type": "event"
    },
    {
      "anonymous": false,
      "inputs": [
        {
          "indexed": true,
          "internalType": "address",
          "name": "from",
          "type": "address"
        },
        {
          "indexed": true,
          "internalType": "address",
          "name": "to",
          "type": "address"
        },
        {
          "indexed": false,
          "internalType": "uint256",
          "name": "value",
          "type": "uint256"
        }
      ],
      "name": "Transfer",
      "type": "event"
    },
    {
      "inputs": [
        {
          "internalType": "address",
          "name": "",
          "type": "address"
        },
        {
          "internalType": "address",
          "name": "",
          "type": "address"
        }
      ],
      "name": "allowance",
      "outputs": [
        {
          "internalType": "uint256",
          "name": "",
          "type": "uint256"
        }
      ],
      "stateMutability": "view",
      "type": "function"
    },
    {
      "inputs": [
        {
          "internalType": "address",
          "name": "",
          "type": "address"
        }
      ],
      "name": "balanceOf",
      "outputs": [
        {
          "internalType": "uint256",
          "name": "",
          "type": "uint256"
        }
      ],
      "stateMutability": "view",
      "type": "function"
    },
    {
      "inputs": [],
      "name": "name",
      "outputs": [
        {
          "internalType": "string",
          "name": "",
          "type": "string"
        }
      ],
      "stateMutability": "view",
      "type": "function"
    },
    {
      "inputs": [],
      "name": "symbol",
      "outputs": [
        {
          "internalType": "string",
          "name": "",
          "type": "string"
        }
      ],
      "stateMutability": "view",
      "type": "function"
    },
    {
      "inputs": [],
      "name": "totalSupply",
      "outputs": [
        {
          "internalType": "uint256",
          "name": "",
          "type": "uint256"
        }
      ],
      "stateMutability": "view",
      "type": "function"
    },
    {
      "inputs": [
        {
          "internalType": "address",
          "name": "to",
          "type": "address"
        },
        {
          "internalType": "uint256",
          "name": "value",
          "type": "uint256"
        }
      ],
      "name": "transfer",
      "outputs": [
        {
          "internalType": "bool",
          "name": "success",
          "type": "bool"
        }
      ],
      "stateMutability": "nonpayable",
      "type": "function"
    },
    {
      "inputs": [
        {
          "internalType": "address",
          "name": "spender",
          "type": "address"
        },
        {
          "internalType": "uint256",
          "name": "value",
          "type": "uint256"
        }
      ],
      "name": "approve",
      "outputs": [
        {
          "internalType": "bool",
          "name": "success",
          "type": "bool"
        }
      ],
      "stateMutability": "nonpayable",
      "type": "function"
    },
    {
      "inputs": [
        {
          "internalType": "address",
          "name": "from",
          "type": "address"
        },
        {
          "internalType": "address",
          "name": "to",
          "type": "address"
        },
        {
          "internalType": "uint256",
          "name": "value",
          "type": "uint256"
        }
      ],
      "name": "transferFrom",
      "outputs": [
        {
          "internalType": "bool",
          "name": "success",
          "type": "bool"
        }
      ],
      "stateMutability": "nonpayable",
      "type": "function"
    },
    {
      "inputs": [],
      "name": "getContractDetails",
      "outputs": [
        {
          "internalType": "string",
          "name": "",
          "type": "string"
        },
        {
          "internalType": "string",
          "name": "",
          "type": "string"
        },
        {
          "internalType": "uint256",
          "name": "",
          "type": "uint256"
        },
        {
          "internalType": "address",
          "name": "",
          "type": "address"
        },
        {
          "internalType": "uint256",
          "name": "",
          "type": "uint256"
        }
      ],
      "stateMutability": "view",
      "type": "function"
    }
  ],
  "bytecode": "0x60806040526040518060400160405280600881526020017f4d7920546f6b656e000000000000000000000000000000000000000000000000815250600090805190602001906200005192919062000107565b506040518060400160405280600381526020017f4d544b0000000000000000000000000000000000000000000000000000000000815250600190805190602001906200009f92919062000107565b50683635c9adc5dea00000600255348015620000ba57600080fd5b50600254600360003373ffffffffffffffffffffffffffffffffffffffff1673ffffffffffffffffffffffffffffffffffffffff168152602001908152602001600020819055506200021c565b8280546200011590620001b7565b90600052602060002090601f01602090048101928262000139576000855562000185565b82601f106200015457805160ff191683800117855562000185565b8280016001018555821562000185579182015b828111156200018457825182559160200191906001019062000167565b5b50905062000194919062000198565b5090565b5b80821115620001b357600081600090555060010162000199565b5090565b60006002820490506001821680620001d057607f821691505b60208210811415620001e757620001e6620001ed565b5b50919050565b7f4e487b7100000000000000000000000000000000000000000000000000000000600052602260045260246000fd5b610f7d806200022c6000396000f3fe608060405234801561001057600080fd5b50600436106100935760003560e01c806370a082311161006657806370a082311461013457806395d89b41146101645780639dfc911714610182578063a9059cbb146101a4578063dd62ed3e146101d457610093565b806306fdde0314610098578063095ea7b3146100b657806318160ddd146100e657806323b872dd14610104575b600080fd5b6100a0610204565b6040516100ad9190610c79565b60405180910390f35b6100d060048036038101906100cb9190610b3c565b610292565b6040516100dd9190610c5e565b60405180910390f35b6100ee610384565b6040516100fb9190610d3c565b60405180910390f35b61011e60048036038101906101199190610aed565b61038a565b60405161012b9190610c5e565b60405180910390f35b61014e60048036038101906101499190610a88565b61067c565b60405161015b9190610d3c565b60405180910390f35b61016c610694565b6040516101799190610c79565b60405180910390f35b61018a610722565b60405161019b959493929190610c9b565b60405180910390f35b6101be60048036038101906101b99190610b3c565b61089a565b6040516101cb9190610c5e565b60405180910390f35b6101ee60048036038101906101e99190610ab1565b610a39565b6040516101fb9190610d3c565b60405180910390f35b6000805461021190610e78565b80601f016020809104026020016040519081016040528092919081815260200182805461023d90610e78565b801561028a5780601f1061025f5761010080835404028352916020019161028a565b820191906000526020600020905b81548152906001019060200180831161026d57829003601f168201915b505050505081565b600081600460003373ffffffffffffffffffffffffffffffffffffffff1673ffffffffffffffffffffffffffffffffffffffff16815260200190815260200160002060008573ffffffffffffffffffffffffffffffffffffffff1673ffffffffffffffffffffffffffffffffffffffff168152602001908152602001600020819055508273ffffffffffffffffffffffffffffffffffffffff163373ffffffffffffffffffffffffffffffffffffffff167f8c5be1e5ebec7d5bd14f71427d1e84f3dd0314c0f7b2291e5b200ac8c7c3b925846040516103729190610d3c565b60405180910390a36001905092915050565b60025481565b600081600360008673ffffffffffffffffffffffffffffffffffffffff1673ffffffffffffffffffffffffffffffffffffffff16815260200190815260200160002054101561040e576040517f08c379a000000000000000000000000000000000000000000000000000000000815260040161040590610d1c565b60405180910390fd5b81600460008673ffffffffffffffffffffffffffffffffffffffff1673ffffffffffffffffffffffffffffffffffffffff16815260200190815260200160002060003373ffffffffffffffffffffffffffffffffffffffff1673ffffffffffffffffffffffffffffffffffffffff1681526020019081526020016000205410156104cd576040517f08c379a00000000000000000000000000000000000000000000000000000000081526004016104c490610cfc565b60405180910390fd5b81600360008673ffffffffffffffffffffffffffffffffffffffff1673ffffffffffffffffffffffffffffffffffffffff168152602001908152602001600020600082825461051c9190610dc9565b9250508190555081600360008573ffffffffffffffffffffffffffffffffffffffff1673ffffffffffffffffffffffffffffffffffffffff16815260200190815260200160002060008282546105729190610d73565b9250508190555081600460008673ffffffffffffffffffffffffffffffffffffffff1673ffffffffffffffffffffffffffffffffffffffff16815260200190815260200160002060003373ffffffffffffffffffffffffffffffffffffffff1673ffffffffffffffffffffffffffffffffffffffff16815260200190815260200160002060008282546106059190610dc9565b925050819055508273ffffffffffffffffffffffffffffffffffffffff168473ffffffffffffffffffffffffffffffffffffffff167fddf252ad1be2c89b69c2b068fc378daa952ba7f163c4a11628f55a4df523b3ef846040516106699190610d3c565b60405180910390a3600190509392505050565b60036020528060005260406000206000915090505481565b600180546106a190610e78565b80601f01602080910402602001604051908101604052809291908181526020018280546106cd90610e78565b801561071a5780601f106106ef5761010080835404028352916020019161071a565b820191906000526020600020905b8154815290600101906020018083116106fd57829003601f168201915b505050505081565b606080600080600080600160025430600360003373ffffffffffffffffffffffffffffffffffffffff1673ffffffffffffffffffffffffffffffffffffffff1681526020019081526020016000205484805461077d90610e78565b80601f01602080910402602001604051908101604052809291908181526020018280546107a990610e78565b80156107f65780601f106107cb576101008083540402835291602001916107f6565b820191906000526020600020905b8154815290600101906020018083116107d957829003601f168201915b5050505050945083805461080990610e78565b80601f016020809104026020016040519081016040528092919081815260200182805461083590610e78565b80156108825780601f1061085757610100808354040283529160200191610882565b820191906000526020600020905b81548152906001019060200180831161086557829003601f168201915b50505050509350945094509450945094509091929394565b600081600360003373ffffffffffffffffffffffffffffffffffffffff1673ffffffffffffffffffffffffffffffffffffffff16815260200190815260200160002054101561091e576040517f08c379a000000000000000000000000000000000000000000000000000000000815260040161091590610d1c565b60405180910390fd5b81600360003373ffffffffffffffffffffffffffffffffffffffff1673ffffffffffffffffffffffffffffffffffffffff168152602001908152602001600020600082825461096d9190610dc9565b9250508190555081600360008573ffffffffffffffffffffffffffffffffffffffff1673ffffffffffffffffffffffffffffffffffffffff16815260200190815260200160002060008282546109c39190610d73565b925050819055508273ffffffffffffffffffffffffffffffffffffffff163373ffffffffffffffffffffffffffffffffffffffff167fddf252ad1be2c89b69c2b068fc378daa952ba7f163c4a11628f55a4df523b3ef84604051610a279190610d3c565b60405180910390a36001905092915050565b6004602052816000526040600020602052806000526040600020600091509150505481565b600081359050610a6d81610f19565b92915050565b600081359050610a8281610f30565b92915050565b600060208284031215610a9a57600080fd5b6000610aa884828501610a5e565b91505092915050565b60008060408385031215610ac457600080fd5b6000610ad285828601610a5e565b9250506020610ae385828601610a5e565b9150509250929050565b600080600060608486031215610b0257600080fd5b6000610b1086828701610a5e565b9350506020610b2186828701610a5e565b9250506040610b3286828701610a73565b9150509250925092565b60008060408385031215610b4f57600080fd5b6000610b5d85828601610a5e565b9250506020610b6e85828601610a73565b9150509250929050565b610b8181610dfd565b82525050565b610b9081610e0f565b82525050565b6000610ba182610d57565b610bab8185610d62565b9350610bbb818560208601610e45565b610bc481610f08565b840191505092915050565b6000610bdc601283610d62565b91507f416c6c6f77616e636520657863656564656400000000000000000000000000006000830152602082019050919050565b6000610c1c601483610d62565b91507f496e73756666696369656e742062616c616e63650000000000000000000000006000830152602082019050919050565b610c5881610e3b565b82525050565b6000602082019050610c736000830184610b87565b92915050565b60006020820190508181036000830152610c938184610b96565b905092915050565b600060a0820190508181036000830152610cb58188610b96565b90508181036020830152610cc98187610b96565b9050610cd86040830186610c4f565b610ce56060830185610b78565b610cf26080830184610c4f565b9695505050505050565b60006020820190508181036000830152610d1581610bcf565b9050919050565b60006020820190508181036000830152610d3581610c0f565b9050919050565b6000602082019050610d516000830184610c4f565b92915050565b600081519050919050565b600082825260208201905092915050565b6000610d7e82610e3b565b9150610d8983610e3b565b9250827fffffffffffffffffffffffffffffffffffffffffffffffffffffffffffffffff03821115610dbe57610dbd610eaa565b5b828201905092915050565b6000610dd482610e3b565b9150610ddf83610e3b565b925082821015610df257610df1610eaa565b5b828203905092915050565b6000610e0882610e1b565b9050919050565b60008115159050919050565b600073ffffffffffffffffffffffffffffffffffffffff82169050919050565b6000819050919050565b60005b83811015610e63578082015181840152602081019050610e48565b83811115610e72576000848401525b50505050565b60006002820490506001821680610e9057607f821691505b60208210811415610ea457610ea3610ed9565b5b50919050565b7f4e487b7100000000000000000000000000000000000000000000000000000000600052601160045260246000fd5b7f4e487b7100000000000000000000000000000000000000000000000000000000600052602260045260246000fd5b6000601f19601f8301169050919050565b610f2281610dfd565b8114610f2d57600080fd5b50565b610f3981610e3b565b8114610f4457600080fd5b5056fea2646970667358221220ef4d60989b5000338eb0679cced339832affc198401885c36c5db846ee97157664736f6c63430008000033",
  "immutableReferences": {},
  "source": "// SPDX-License-Identifier: MIT\r\npragma solidity ^0.8.0;\r\n\r\ncontract MyToken {\r\n    string public name = \"My Token\";\r\n    string public symbol = \"MTK\";\r\n    uint256 public totalSupply = 1000 * 10**18; // Reduce for testing\r\n    mapping(address => uint256) public balanceOf;\r\n    mapping(address => mapping(address => uint256)) public allowance;\r\n\r\n    event Transfer(address indexed from, address indexed to, uint256 value);\r\n    event Approval(address indexed owner, address indexed spender, uint256 value);\r\n\r\n    constructor() {\r\n        balanceOf[msg.sender] = totalSupply;\r\n    }\r\n\r\n    function transfer(address to, uint256 value) public returns (bool success) {\r\n        require(balanceOf[msg.sender] >= value, \"Insufficient balance\");\r\n        balanceOf[msg.sender] -= value;\r\n        balanceOf[to] += value;\r\n        emit Transfer(msg.sender, to, value);\r\n        return true;\r\n    }\r\n\r\n    function approve(address spender, uint256 value) public returns (bool success) {\r\n        allowance[msg.sender][spender] = value;\r\n        emit Approval(msg.sender, spender, value);\r\n        return true;\r\n    }\r\n\r\n    function transferFrom(address from, address to, uint256 value) public returns (bool success) {\r\n        require(balanceOf[from] >= value, \"Insufficient balance\");\r\n        require(allowance[from][msg.sender] >= value, \"Allowance exceeded\");\r\n        balanceOf[from] -= value;\r\n        balanceOf[to] += value;\r\n        allowance[from][msg.sender] -= value;\r\n        emit Transfer(from, to, value);\r\n        return true;\r\n    }\r\n\r\n    // New function to print contract details\r\n    function getContractDetails() public view returns (\r\n        string memory,\r\n        string memory,\r\n        uint256,\r\n        address,\r\n        uint256\r\n    ) {\r\n        return (\r\n            name,\r\n            symbol,\r\n            totalSupply,\r\n            address(this),\r\n            balanceOf[msg.sender]\r\n        );\r\n    }\r\n}\r\n",
  "sourcePath": "C:\\Users\\ASUS\\Downloads\\Network-dashboard-web3-main\\Network-dashboard-web3-main\\contracts\\MyToken.sol",
  "compiler": {
    "name": "solc",
    "version": "0.8.0+commit.c7dfd78e.Emscripten.clang"
  },
  "schemaVersion": "3.4.16",
  "updatedAt": "2024-05-25T18:38:32.005Z",
  "devdoc": {
    "kind": "dev",
    "methods": {},
    "version": 1
  },
  "userdoc": {
    "kind": "user",
    "methods": {},
    "version": 1
  }
}